:100000000C942A000C943F000C943F000C943F0089
:100010000C943F000C943F000C943F000C943F0064
:100020000C943F000C943F000C943F000C943F0054
:100030000C943F000C943F000C943F000C943F0044
:100040000C943F000C943F000C943F000C943F0034
:100050000C943F0011241FBECFE5D8E0DEBFCDBF1A
:1000600011E0A0E6B0E0EEE3FDE302C005900D92E2
:10007000AE3CB107D9F70E94C9140C949D1E0C9494
:100080000000EF92FF920F931F937B018C0120E001
:1000900030E040E05FE40E94ED0388238CF0C8016B
:1000A000B70120E030E040E05FE40E94B9010E9427
:1000B0004D049B01AC01205030404040504806C0E8
:1000C000C801B7010E944D049B01AC01B901CA01EE
:1000D0001F910F91FF90EF900895A0E0B0E0E3E74B
:1000E000F0E00C94661EDC012B01FA019C91923029
:1000F00008F439C1EB018881823008F433C19430AF
:1001000069F4843009F02FC111969C91119789816F
:10011000981709F428C1A5ECB0E025C1843009F492
:1001200021C18230A9F4923009F01DC19A01AD01BC
:1001300088E0EA010990AE01E90109929E0181502F
:10014000C1F7E201898111969C918923818308C1BD
:10015000923009F407C112962D903C901397EB0151
:100160008A819B811496AD90BD90CD90DC901797BD
:10017000EC80FD800E811F819101281B390BB90194
:1001800037FF04C066277727621B730B6032710547
:100190000CF061C0121613066CF537014801062EEB
:1001A00004C096948794779467940A94D2F721E0D8
:1001B00030E040E050E004C0220F331F441F551FC1
:1001C0006A95D2F721503040404050402E213F21C7
:1001D00040235123211531054105510521F021E02E
:1001E00030E040E050E079018A01E628F72808294C
:1001F00019293CC0232BD1F1260E371E35014601AB
:10020000062E04C096948794779467940A94D2F744
:1002100021E030E040E050E004C0220F331F441FD3
:10022000551F6A95D2F721503040404050402A2156
:100230003B214C215D21211531054105510521F05E
:1002400021E030E040E050E059016A01A628B728DB
:10025000C828D9280BC0821593052CF01C01AA24AC
:10026000BB24650103C0EE24FF24870111969C91F5
:10027000D20111968C91981709F445C0992339F051
:10028000A80197012A193B094C095D0906C0A6017E
:1002900095012E193F09400B510B57FD08C01182E3
:1002A0003382228224833583468357831DC081E0B5
:1002B00081833382228288279927DC01821B930B5A
:1002C000A40BB50B84839583A683B7830DC0220F3F
:1002D000331F441F551F24833583468357838281F0
:1002E000938101979383828324813581468157814D
:1002F000DA01C9010197A109B1098F5F9F4FAF4F83
:10030000BF4328F30BC0918333822282EA0CFB1C8B
:100310000C1D1D1DE482F5820683178383E0808314
:10032000248135814681578157FF1AC0C901AA2708
:1003300097FDA095BA2F81709070A070B0705695FF
:10034000479537952795822B932BA42BB52B848328
:100350009583A683B7838281938101969383828359
:10036000DF0101C0D201CD01CDB7DEB7E2E10C94CF
:10037000821EA0E2B0E0EFEBF1E00C94721E698304
:100380007A838B839C832D833E834F835887E9E058
:10039000EE2EF12CEC0EFD1ECE010196B7010E944F
:1003A0003E068E010F5E1F4FCE010596B8010E94DA
:1003B0003E068A8991E089278A8BC701B801AE0180
:1003C000475E5F4F0E946D000E946905A096E6E0BF
:1003D0000C948E1EA0E2B0E0E0EFF1E00C94721EEF
:1003E00069837A838B839C832D833E834F835887D5
:1003F000F9E0EF2EF12CEC0EFD1ECE010196B701B7
:100400000E943E068E010F5E1F4FCE010596B80179
:100410000E943E06C701B801AE01475E5F4F0E94D1
:100420006D000E946905A096E6E00C948E1EA0E285
:10043000B0E0EDE1F2E00C94661E69837A838B8371
:100440009C832D833E834F835887CE010196BE0146
:10045000675F7F4F0E943E06CE010596BE016F5E2C
:100460007F4F0E943E069985923088F089898230BC
:10047000C8F0943019F4823051F404C0843029F467
:10048000923081F485EC90E0C6C0923049F420E0CF
:100490009A858A89981321E02A87CE010996BBC0E4
:1004A000823049F420E09A858A89981321E02A8BCA
:1004B000CE014196B0C02D843E844F8458886D880B
:1004C0007E888F88988CEE24FF248701AA24BB2481
:1004D000650140E050E060E070E0E0E0F0E0C10184
:1004E00081709070892BE9F0E60CF71C081D191D2E
:1004F0009A01AB012A0D3B1D4C1D5D1D80E090E073
:10050000A0E0B0E0E614F7040805190520F481E046
:1005100090E0A0E0B0E0BA01A901480F591F6A1F9E
:100520007B1FAA0CBB1CCC1CDD1C97FE08C081E005
:1005300090E0A0E0B0E0A82AB92ACA2ADB2A3196C6
:10054000E032F10549F0660C771C881C991C569422
:10055000479437942794C3CFFA85EA892B893C893D
:100560008B859C85280F391F2E5F3F4F17C0CA010E
:1005700081709070892B61F016950795F794E79438
:1005800080E090E0A0E0B0E8E82AF92A0A2B1B2BD3
:1005900076956795579547952F5F3F4F77FDE7CF46
:1005A0000CC0440F551F661F771F17FD4160EE0CEE
:1005B000FF1C001F111F21503040403090E05907B0
:1005C00090E0690790E4790760F32B8F3C8FDB01A3
:1005D000CA018F779070A070B07080349105A1052A
:1005E000B10561F447FD0AC0E114F10401051105EC
:1005F00029F0405C5F4F6F4F7F4F40781A8EFE1797
:1006000011F081E08A8F4D8F5E8F6F8F78A383E02A
:10061000898FCE0149960E946905A096E2E10C946B
:10062000821EA8E1B0E0E7E1F3E00C946E1E69835E
:100630007A838B839C832D833E834F835887B9E0D5
:10064000EB2EF12CEC0EFD1ECE010196B7010E949F
:100650003E068E010F5E1F4FCE010596B8010E9427
:100660003E062985223008F47EC03989323010F4E4
:10067000B8017CC08A859A8989278A87243011F03D
:10068000223031F4231709F06EC065EC70E06EC0C3
:10069000343039F41D861E861F86188A1C861B86F8
:1006A00004C0323021F484E08987B7015FC02B8514
:1006B0003C858B899C89281B390B3C872B87ED84D3
:1006C000FE840F851889AD88BE88CF88D88CEA143F
:1006D000FB040C051D0540F4EE0CFF1C001F111F50
:1006E000215030403C872B8720E030E040E050E054
:1006F00080E090E0A0E0B0E460E070E0EA14FB0489
:100700000C051D0540F0282B392B4A2B5B2BEA18D2
:10071000FB080C091D09B695A79597958795EE0CD2
:10072000FF1C001F111F6F5F7F4F6F31710531F785
:10073000DA01C9018F779070A070B0708034910594
:10074000A105B10561F427FD0AC0E114F10401051A
:10075000110529F0205C3F4F4F4F5F4F20782D87C8
:100760003E874F87588BBE01675F7F4FCB010E944A
:1007700069056896EAE00C948A1EA8E1B0E0E3EC13
:10078000F3E00C94721E69837A838B839C832D83A0
:100790003E834F83588789E0E82EF12CEC0EFD1E36
:1007A000CE010196B7010E943E068E010F5E1F4FDB
:1007B000CE010596B8010E943E068985823040F040
:1007C0008989823028F0C701B8010E94B60601C0AD
:1007D0008FEF6896E6E00C948E1EA8E1B0E0E3EFA0
:1007E000F3E00C94721E69837A838B839C832D8340
:1007F0003E834F83588789E0E82EF12CEC0EFD1ED6
:10080000CE010196B7010E943E068E010F5E1F4F7A
:10081000CE010596B8010E943E068985823040F0DF
:100820008989823028F0C701B8010E94B60601C04C
:100830008FEF6896E6E00C948E1EA8E1B0E0E3E24C
:10084000F4E00C94721E69837A838B839C832D83DE
:100850003E834F83588789E0E82EF12CEC0EFD1E75
:10086000CE010196B7010E943E068E010F5E1F4F1A
:10087000CE010596B8010E943E068985823040F07F
:100880008989823028F0C701B8010E94B60601C0EC
:1008900081E06896E6E00C948E1EACE0B0E0E3E503
:1008A000F4E00C94761E69837A838B839C83CE015B
:1008B0000196BE016B5F7F4F0E943E068D818230A4
:1008C00061F1823050F1843021F48E81882351F11E
:1008D0002EC02F81388537FD20C06E812F31310524
:1008E0001CF06623F9F023C08EE190E0821B930B8D
:1008F00029853A854B855C8504C056954795379583
:1009000027958A95D2F76623B1F05095409530959A
:1009100021953F4F4F4F5F4F0EC020E030E040E049
:1009200050E009C02FEF3FEF4FEF5FE704C020E03A
:1009300030E040E050E8B901CA012C96E2E00C94A6
:10094000921EA8E0B0E0E7EAF4E00C946E1E7B0192
:100950008C01611571058105910519F482E0898387
:1009600060C083E089838EE1C82ED12CDC82CB82EB
:10097000ED82FE820F831887C801B7010E941A0515
:10098000FC013197F7FF3BC0222733272E1B3F0B7B
:1009900057016801022E04C0D694C794B794A79457
:1009A0000A94D2F740E050E060E070E081E090E02F
:1009B000A0E0B0E004C0880F991FAA1FBB1F2A95B2
:1009C000D2F70197A109B1098E219F21A023B1235C
:1009D0000097A105B10521F041E050E060E070E032
:1009E0004A295B296C297D294D835E836F83788733
:1009F0008EE190E08E1B9F0B9C838B8312C03097FF
:100A000081F00E2E04C0EE0CFF1C001F111F0A9473
:100A1000D2F7ED82FE820F831887CE1ADF0ADC82BE
:100A2000CB821A82CE0101960E9469052896EAE0DF
:100A30000C948A1EEF92FF920F931F937B018C01FF
:100A400080E0E81680E0F80681E0080780E01807FB
:100A500088F48FEFE816F1040105110531F028F054
:100A600088E090E0A0E0B0E017C080E090E0A0E077
:100A7000B0E012C080E0E81680E0F80680E00807E9
:100A800081E0180728F088E190E0A0E0B0E004C021
:100A900080E190E0A0E0B0E020E230E040E050E013
:100AA000281B390B4A0B5B0B04C016950795F7946E
:100AB000E7948A95D2F7F701E353FF4F8081281B13
:100AC000310941095109C9011F910F91FF90EF9020
:100AD0000895DF92EF92FF920F931F93FC01E48041
:100AE000F58006811781D1808081823048F480E0D2
:100AF00090E0A0E1B0E0E82AF92A0A2B1B2BA5C060
:100B0000843009F49FC0823021F4EE24FF24870151
:100B100005C0E114F1040105110519F4E0E0F0E06D
:100B200096C0628173819FEF623879070CF05BC0D9
:100B300022E83FEF261B370B2A3131052CF020E04D
:100B400030E040E050E02AC0B801A701022E04C006
:100B500076956795579547950A94D2F781E090E08E
:100B6000A0E0B0E004C0880F991FAA1FBB1F2A9500
:100B7000D2F70197A109B1098E219F21A023B123AA
:100B80000097A105B10521F081E090E0A0E0B0E080
:100B90009A01AB01282B392B4A2B5B2BDA01C901B7
:100BA0008F779070A070B07080349105A105B10569
:100BB00039F427FF09C0205C3F4F4F4F5F4F04C0FF
:100BC000215C3F4F4F4F5F4FE0E0F0E02030A0E06E
:100BD0003A07A0E04A07A0E45A0710F0E1E0F0E08D
:100BE00079018A0127C06038710564F5FB01E1587D
:100BF000FF4FD801C7018F779070A070B07080341C
:100C00009105A105B10539F4E7FE0DC080E490E03F
:100C1000A0E0B0E004C08FE390E0A0E0B0E0E80E18
:100C2000F91E0A1F1B1F17FF05C016950795F7949D
:100C3000E794319687E016950795F794E7948A959F
:100C4000D1F705C0EE24FF248701EFEFF0E06E2F0F
:100C5000679566276795902F9F77D794DD24D79463
:100C60008E2F8695492F462B582F5D29B701CA0133
:100C70001F910F91FF90EF90DF900895FC01DB0131
:100C8000408151812281622F6F7770E0221F2227DD
:100C9000221F9381892F880F822B282F30E0991FE4
:100CA0009927991F11969C93119721153105A9F544
:100CB000411551056105710511F482E037C082E8E4
:100CC0009FEF13969C938E9312979A01AB0167E066
:100CD000220F331F441F551F6A95D1F783E08C9371
:100CE0000DC0220F331F441F551F12968D919C91EA
:100CF0001397019713969C938E931297203080E060
:100D0000380780E0480780E4580758F314962D937D
:100D10003D934D935C93179708952F3F310579F4D8
:100D2000411551056105710519F484E08C9308950E
:100D300064FF03C081E08C9312C01C9210C02F5737
:100D4000304013963C932E93129783E08C9387E068
:100D5000440F551F661F771F8A95D1F7706414964C
:100D60004D935D936D937C93179708951F93DC01CA
:100D7000FB019C91923008F447C08081823008F4D6
:100D800043C0943051F411961C91843099F58181BF
:100D9000682F70E0611B71093FC0843021F09230F0
:100DA00031F48230B9F18181882389F12DC0119607
:100DB0001C9111978230F1F081811817D9F41296A5
:100DC0002D913C911397828193818217930794F020
:100DD00028173907BCF014968D919D910D90BC9108
:100DE000A02D2481358146815781281739074A076C
:100DF0005B0718F4112341F00AC082179307A40778
:100E0000B50740F4112319F061E070E005C06FEF01
:100E10007FEF02C060E070E0CB011F910895DF9387
:100E2000CF93CDB7DEB7E7E2F0E080E48083E6E27F
:100E3000F0E087E88083CF91DF910895DF93CF932F
:100E40000F92CDB7DEB78983A6E2B0E0E6E2F0E02C
:100E5000808180618C93A7E2B0E0E7E2F0E08081DE
:100E6000982F987F8981892B8C93A6E2B0E0E6E2E7
:100E7000F0E0808180648C93E6E2F0E08081882F4E
:100E800090E0807190700097B9F3E4E2F0E0808127
:100E900091810F90CF91DF9108950F931F93DF936E
:100EA000CF93CDB7DEB7CE59D0400FB6F894DEBFA2
:100EB0000FBECDBFA7E3B0E0E7E3F0E08081806F35
:100EC0008C93A4E3B0E0E4E3F0E08081806C8C9349
:100ED000A5E3B0E0E5E3F0E080818F778C93FE013D
:100EE000E556FF4F80E090E0A0E8BFE38083918368
:100EF000A283B3838E0109561F4FFE01E556FF4FB3
:100F0000608171818281938120E030E048E453E484
:100F10000E941702DC01CB01F80180839183A28338
:100F2000B383FE01E956FF4F608171818281938115
:100F300020E030E040E85FE30E941D04882344F491
:100F4000FE01EB56FF4F81E090E09183808364C007
:100F5000FE01E956FF4F608171818281938120E01B
:100F60003FEF4FE757E40E94BD0318160CF043C053
:100F7000FE01E556FF4F608171818281938120E0FF
:100F800030E040E251E40E941702DC01CB018E0107
:100F90000B561F4FBC01CD010E944100DC01CB016B
:100FA000F801918380831FC0FE01ED56FF4F84E15D
:100FB00090E091838083FE01ED56FF4F8081918107
:100FC0000197F1F7FE01ED56FF4F91838083DE011B
:100FD000AB56BF4FFE01EB56FF4F808191810197C9
:100FE00011969C938E93FE01EB56FF4F8081918169
:100FF0000097D1F627C08E010B561F4FFE01E95610
:10100000FF4F60817181828193810E944100DC01E8
:10101000CB01F80191838083DE01AF56BF4FFE0103
:10102000EB56FF4F808191818D939C93FE01EF568B
:10103000FF4F808191810197F1F7FE01EF56FF4F3D
:101040009183808383E30E94140EFE01E357FF4FD8
:1010500080E090E0A8ECB2E480839183A283B38324
:101060008E0107571F4FFE01E357FF4F60817181CB
:101070008281938129E838E848E85EE30E941702FC
:10108000DC01CB01F80180839183A283B383FE014D
:10109000E757FF4F608171818281938120E030E0CA
:1010A00040E85FE30E941D04882334F4FE01E85702
:1010B000FF4F81E08083E0C0FE01E757FF4F608172
:1010C00071818281938120E030E04FE753E40E94F8
:1010D000BD0318160CF0C0C0FE01E357FF4F60813E
:1010E00071818281938120E030E04AE754E40E94DC
:1010F0001103DC01CB01FE01EC57FF4F808391838C
:10110000A283B3838E0100581F4FFE01EC57FF4F9F
:10111000608171818281938120E030E048E453E472
:101120000E941702DC01CB01F80180839183A28326
:10113000B383FE01E058FF4F60817181828193810A
:1011400020E030E040E85FE30E941D04882344F47F
:10115000FE01E258FF4F81E090E09183808364C0FC
:10116000FE01E058FF4F608171818281938120E010
:101170003FEF4FE757E40E94BD0318160CF043C041
:10118000FE01EC57FF4F608171818281938120E0E5
:1011900030E040E251E40E941702DC01CB018E01F5
:1011A00002581F4FBC01CD010E944100DC01CB0160
:1011B000F801918380831FC0FE01E458FF4F84E152
:1011C00090E091838083FE01E458FF4F80819181FC
:1011D0000197F1F7FE01E458FF4F91838083DE0110
:1011E000A258BF4FFE01E258FF4F808191810197C5
:1011F00011969C938E93FE01E258FF4F808191815E
:101200000097D1F64BC08E0102581F4FFE01E058E7
:10121000FF4F60817181828193810E944100DC01D6
:10122000CB01F80191838083DE01A658BF4FFE01F8
:10123000E258FF4F8081918111969C938E93FE011D
:10124000E658FF4F808191810197F1F7FE01E65842
:10125000FF4F9183808322C08E0108571F4FFE01EC
:10126000E757FF4F60817181828193810E94410025
:10127000DC01CB01F8018083DE01A758BF4FFE01DE
:10128000E857FF4F80818C93FE01E758FF4F808124
:101290008A95F1F7FE01E758FF4F808382E30E94B1
:1012A000140EFE01EB58FF4F80E090E0A8ECB2E492
:1012B00080839183A283B3838E010F581F4FFE0159
:1012C000EB58FF4F608171818281938129E838E872
:1012D00048E85EE30E941702DC01CB01F80180833D
:1012E0009183A283B383FE01EF58FF4F6081718128
:1012F0008281938120E030E040E85FE30E941D049A
:10130000882334F4FE01E059FF4F81E08083E0C080
:10131000FE01EF58FF4F608171818281938120E04F
:1013200030E04FE753E40E94BD0318160CF0C0C034
:10133000FE01EB58FF4F608171818281938120E033
:1013400030E04AE754E40E941103DC01CB01FE01C6
:10135000E459FF4F80839183A283B3838E010859A0
:101360001F4FFE01E459FF4F60817181828193819B
:1013700020E030E048E453E40E941702DC01CB0196
:10138000F80180839183A283B383FE01E859FF4F64
:10139000608171818281938120E030E040E85FE3E9
:1013A0000E941D04882344F4FE01EA59FF4F81E0A6
:1013B00090E09183808364C0FE01E859FF4F608113
:1013C00071818281938120E03FEF4FE757E40E94D3
:1013D000BD0318160CF043C0FE01E459FF4F6081B5
:1013E00071818281938120E030E040E251E40E94EB
:1013F0001702DC01CB018E010A591F4FBC01CD0140
:101400000E944100DC01CB01F801918380831FC061
:10141000FE01EC59FF4F84E190E091838083FE014F
:10142000EC59FF4F808191810197F1F7FE01EC5952
:10143000FF4F91838083DE01AA59BF4FFE01EA5915
:10144000FF4F80819181019711969C938E93FE01AD
:10145000EA59FF4F808191810097D1F64BC08E01F0
:101460000A591F4FFE01E859FF4F60817181828147
:1014700093810E944100DC01CB01F80191838083BC
:10148000DE01AE59BF4FFE01EA59FF4F80819181C5
:1014900011969C938E93FE01EE59FF4F80819181AE
:1014A0000197F1F7FE01EE59FF4F9183808322C02F
:1014B0008E0100591F4FFE01EF58FF4F608171816F
:1014C000828193810E944100DC01CB01F80180837D
:1014D000DE01AF59BF4FFE01E059FF4F80818C9371
:1014E000FE01EF59FF4F80818A95F1F7FE01EF5918
:1014F000FF4F808388E20E94140EFE01E35AFF4FE3
:1015000080E090E0A8ECB2E480839183A283B3836F
:101510008E01075A1F4FFE01E35AFF4F6081718110
:101520008281938129E838E848E85EE30E94170247
:10153000DC01CB01F80180839183A283B383FE0198
:10154000E75AFF4F608171818281938120E030E012
:1015500040E85FE30E941D04882334F4FE01E85A4A
:10156000FF4F81E08083E0C0FE01E75AFF4F6081BA
:1015700071818281938120E030E04FE753E40E9443
:10158000BD0318160CF0C0C0FE01E35AFF4F608186
:1015900071818281938120E030E04AE754E40E9427
:1015A0001103DC01CB01FE01EC5AFF4F80839183D4
:1015B000A283B3838E01005B1F4FFE01EC5AFF4FE5
:1015C000608171818281938120E030E048E453E4BE
:1015D0000E941702DC01CB01F80180839183A28372
:1015E000B383FE01E05BFF4F608171818281938153
:1015F00020E030E040E85FE30E941D04882344F4CB
:10160000FE01E25BFF4F81E090E09183808364C044
:10161000FE01E05BFF4F608171818281938120E058
:101620003FEF4FE757E40E94BD0318160CF043C08C
:10163000FE01EC5AFF4F608171818281938120E02D
:1016400030E040E251E40E941702DC01CB018E0140
:10165000025B1F4FBC01CD010E944100DC01CB01A8
:10166000F801918380831FC0FE01E45BFF4F84E19A
:1016700090E091838083FE01E45BFF4F8081918144
:101680000197F1F7FE01E45BFF4F91838083DE0158
:10169000A25BBF4FFE01E25BFF4F8081918101970A
:1016A00011969C938E93FE01E25BFF4F80819181A6
:1016B0000097D1F64BC08E01025B1F4FFE01E05B2D
:1016C000FF4F60817181828193810E944100DC0122
:1016D000CB01F80191838083DE01A65BBF4FFE0141
:1016E000E25BFF4F8081918111969C938E93FE0166
:1016F000E65BFF4F808191810197F1F7FE01E65B88
:10170000FF4F9183808322C08E01085A1F4FFE0134
:10171000E75AFF4F60817181828193810E9441006D
:10172000DC01CB01F8018083DE01A75BBF4FFE0126
:10173000E85AFF4F80818C93FE01E75BFF4F808169
:101740008A95F1F7FE01E75BFF4F80838EE00E94F0
:10175000140EFE01EB5BFF4F80E090E0A8ECB2E4DA
:1017600080839183A283B3838E010F5B1F4FFE01A1
:10177000EB5BFF4F608171818281938129E838E8BA
:1017800048E85EE30E941702DC01CB01F801808388
:101790009183A283B383FE01EF5BFF4F6081718170
:1017A0008281938120E030E040E85FE30E941D04E5
:1017B000882334F481E0FE01E05CFF4F80839DC00C
:1017C000FE01EF5BFF4F608171818281938120E098
:1017D00030E04FE753E40E94BD0318160CF07EC0C2
:1017E000FE01EB5BFF4F608171818281938120E07C
:1017F00030E04AE754E40E941103DC01CB018CAFD6
:101800009DAFAEAFBFAF6CAD7DAD8EAD9FAD20E0F7
:1018100030E048E453E40E941702DC01CB0188AFBA
:1018200099AFAAAFBBAF68AD79AD8AAD9BAD20E0F3
:1018300030E040E85FE30E941D0488232CF481E03F
:1018400090E09FAB8EAB3FC068AD79AD8AAD9BADEC
:1018500020E03FEF4FE757E40E94BD0318164CF518
:101860006CAD7DAD8EAD9FAD20E030E040E251E447
:101870000E941702DC01CB01BC01CD010E94410096
:10188000DC01CB019FAB8EAB0FC084E190E09DAB40
:101890008CAB8CA99DA90197F1F79DAB8CAB8EA960
:1018A0009FA901979FAB8EAB8EA99FA9009769F75F
:1018B0002DC068AD79AD8AAD9BAD0E944100DC01C1
:1018C000CB019FAB8EAB8EA99FA99BAB8AAB8AA99C
:1018D0009BA90197F1F79BAB8AAB18C0FE01EF5BA8
:1018E000FF4F60817181828193810E944100DC0100
:1018F000CB01FE01E05CFF4F8083FE01E05CFF4F07
:10190000808189AB89A98A95F1F789AB81E00E9432
:10191000140E80E090E0AAEFB4E48DA79EA7AFA7D5
:10192000B8AB6DA57EA58FA598A929E838E848E849
:101930005EE30E941702DC01CB0189A79AA7ABA73F
:10194000BCA769A57AA58BA59CA520E030E040E85E
:101950005FE30E941D0488231CF481E088A791C0E6
:1019600069A57AA58BA59CA520E030E04FE753E45C
:101970000E94BD0318160CF07BC06DA57EA58FA537
:1019800098A920E030E04AE754E40E941103DC010A
:10199000CB018CA39DA3AEA3BFA36CA17DA18EA1FF
:1019A0009FA120E030E048E453E40E941702DC01EC
:1019B000CB0188A399A3AAA3BBA368A179A18AA1FB
:1019C0009BA120E030E040E85FE30E941D048823F3
:1019D0002CF481E090E09F8F8E8F3FC068A179A1A9
:1019E0008AA19BA120E03FEF4FE757E40E94BD038F
:1019F00018164CF56CA17DA18EA19FA120E030E0CE
:101A000040E251E40E941702DC01CB01BC01CD0190
:101A10000E944100DC01CB019F8F8E8F0FC084E1BB
:101A200090E09D8F8C8F8C8D9D8D0197F1F79D8F10
:101A30008C8F8E8D9F8D01979F8F8E8F8E8D9F8D1A
:101A4000009769F724C068A179A18AA19BA10E948F
:101A50004100DC01CB019F8F8E8F8E8D9F8D9B8FE0
:101A60008A8F8A8D9B8D0197F1F79B8F8A8F0FC08C
:101A700069A57AA58BA59CA50E944100DC01CB013C
:101A800088A788A5898F898D8A95F1F7898F86E047
:101A90000E94140E80E090E0A8ECB2E48D8B9E8B47
:101AA000AF8BB88F6D897E898F89988D29E838E84A
:101AB00048E85EE30E941702DC01CB01898B9A8B18
:101AC000AB8BBC8B69897A898B899C8920E030E05B
:101AD00040E85FE30E941D0488231CF481E0888BAA
:101AE00091C069897A898B899C8920E030E04FE731
:101AF00053E40E94BD0318160CF07BC06D897E89EB
:101B00008F89988D20E030E04AE754E40E94110369
:101B1000DC01CB018C879D87AE87BF876C857D8577
:101B20008E859F8520E030E048E453E40E94170250
:101B3000DC01CB0188879987AA87BB87688579856F
:101B40008A859B8520E030E040E85FE30E941D0429
:101B500088232CF481E090E09F838E833FC06885CA
:101B600079858A859B8520E03FEF4FE757E40E9407
:101B7000BD0318164CF56C857D858E859F8520E00C
:101B800030E040E251E40E941702DC01CB01BC01CD
:101B9000CD010E944100DC01CB019F838E830FC0E9
:101BA00084E190E09D838C838C819D810197F1F786
:101BB0009D838C838E819F8101979F838E838E81ED
:101BC0009F81009769F724C0688579858A859B8500
:101BD0000E944100DC01CB019F838E838E819F8117
:101BE0009B838A838A819B810197F1F79B838A83F8
:101BF0000FC069897A898B899C890E944100DC0128
:101C0000CB01888B8889898389818A95F1F78983BB
:101C1000C256DF4F0FB6F894DEBF0FBECDBFCF91D7
:101C2000DF911F910F910895DF93CF93CDB7DEB76A
:101C3000EF970FB6F894DEBF0FBECDBF8FAFA8E30E
:101C4000B0E0E8E3F0E08081982F9F708FAD807F57
:101C5000892B8C93A5E3B0E0E5E3F0E080818F7BF6
:101C60008C93A5E3B0E0E5E3F0E0808180688C939D
:101C700080E090E0A0E8BFE38BAF9CAFADAFBEAF1C
:101C80006BAD7CAD8DAD9EAD29E838E848E85EE3EC
:101C90000E941702DC01CB018FAB98AFA9AFBAAF9E
:101CA0006FA978AD89AD9AAD20E030E040E85FE300
:101CB0000E941D0488231CF481E08EAB91C06FA9A3
:101CC00078AD89AD9AAD20E030E04FE753E40E9453
:101CD000BD0318160CF07BC06BAD7CAD8DAD9EAD19
:101CE00020E030E04AE754E40E941103DC01CB011C
:101CF0008AAB9BABACABBDAB6AA97BA98CA99DA9F8
:101D000020E030E048E453E40E941702DC01CB01FC
:101D10008EA79FA7A8ABB9AB6EA57FA588A999A9E7
:101D200020E030E040E85FE30E941D0488232CF4AB
:101D300081E090E09DA78CA73FC06EA57FA588A9F4
:101D400099A920E03FEF4FE757E40E94BD03181622
:101D50004CF56AA97BA98CA99DA920E030E040E25E
:101D600051E40E941702DC01CB01BC01CD010E94AD
:101D70004100DC01CB019DA78CA70FC084E190E05E
:101D80009BA78AA78AA59BA50197F1F79BA78AA77E
:101D90008CA59DA501979DA78CA78CA59DA50097B7
:101DA00069F724C06EA57FA588A999A90E94410062
:101DB000DC01CB019DA78CA78CA59DA599A788A721
:101DC00088A599A50197F1F799A788A70FC06FA9D2
:101DD00078AD89AD9AAD0E944100DC01CB018EAB9C
:101DE0008EA98FA38FA18A95F1F78FA3A5E3B0E009
:101DF000E5E3F0E080818F778C9380E090E0A0E8CD
:101E0000BFE38BA39CA3ADA3BEA36BA17CA18DA1BB
:101E10009EA120E030E048E453E40E941702DC0178
:101E2000CB018F8F98A3A9A3BAA36F8D78A189A1A5
:101E30009AA120E030E040E85FE30E941D0488237F
:101E40002CF481E090E09E8F8D8F3FC06F8D78A144
:101E500089A19AA120E03FEF4FE757E40E94BD031C
:101E600018164CF56BA17CA18DA19EA120E030E05D
:101E700040E251E40E941702DC01CB01BC01CD011C
:101E80000E944100DC01CB019E8F8D8F0FC084E149
:101E900090E09C8F8B8F8B8D9C8D0197F1F79C8FA1
:101EA0008B8F8D8D9E8D01979E8F8D8F8D8D9E8DAD
:101EB000009769F714C06F8D78A189A19AA10E943B
:101EC0004100DC01CB019E8F8D8F8D8D9E8D9A8F71
:101ED000898F898D9A8D0197F1F79A8F898FA8E361
:101EE000B0E0E8E3F0E08081282F2F708FAD882FDD
:101EF00090E082959295907F9827807F9827822BFB
:101F00008C93A5E3B0E0E5E3F0E0808180688C93FA
:101F100080E090E0A0E8BFE38D8B9E8BAF8BB88F05
:101F20006D897E898F89988D29E838E848E85EE3D5
:101F30000E941702DC01CB01898B9A8BAB8BBC8B87
:101F400069897A898B899C8920E030E040E85FE3E9
:101F50000E941D0488231CF481E0888B91C069894C
:101F60007A898B899C8920E030E04FE753E40E9416
:101F7000BD0318160CF07BC06D897E898F89988D02
:101F800020E030E04AE754E40E941103DC01CB0179
:101F90008C879D87AE87BF876C857D858E859F8565
:101FA00020E030E048E453E40E941702DC01CB015A
:101FB00088879987AA87BB87688579858A859B8565
:101FC00020E030E040E85FE30E941D0488232CF409
:101FD00081E090E09F838E833FC0688579858A8504
:101FE0009B8520E03FEF4FE757E40E94BD031816A2
:101FF0004CF56C857D858E859F8520E030E040E244
:1020000051E40E941702DC01CB01BC01CD010E940A
:102010004100DC01CB019F838E830FC084E190E0FF
:102020009D838C838C819D810197F1F79D838C83A7
:102030008E819F8101979F838E838E819F810097E0
:1020400069F724C0688579858A859B850E9441004F
:10205000DC01CB019F838E838E819F819B838A834A
:102060008A819B810197F1F79B838A830FC06989DD
:102070007A898B899C890E944100DC01CB01888B85
:102080008889898389818A95F1F78983A5E3B0E0FE
:10209000E5E3F0E080818F778C93EF960FB6F894AC
:1020A000DEBF0FBECDBFCF91DF9108950F931F9379
:1020B000DF93CF93CDB7DEB7CD54D0400FB6F894B1
:1020C000DEBF0FBECDBFFE01E35BFF4F8083A8E301
:1020D000B0E0E8E3F0E08081982F9F70FE01E35BC1
:1020E000FF4F8081807F892B8C93A5E3B0E0E5E3EF
:1020F000F0E0808180648C93A5E3B0E0E5E3F0E05C
:10210000808180688C93FE01E75BFF4F80E090E068
:10211000A0E8BFE380839183A283B3838E010B5B2E
:102120001F4FFE01E75BFF4F6081718182819381C8
:1021300029E838E848E85EE30E941702DC01CB0199
:10214000F80180839183A283B383FE01EB5BFF4F91
:10215000608171818281938120E030E040E85FE31B
:102160000E941D04882334F4FE01EC5BFF4F81E0E4
:102170008083A7C0FE01EB5BFF4F6081718182818C
:10218000938120E030E04FE753E40E94BD0318162E
:102190000CF087C0FE01E75BFF4F60817181828197
:1021A000938120E030E04AE754E40E941103DC010F
:1021B000CB01FE01E05CFF4F80839183A283B38358
:1021C000FE01E05CFF4F608171818281938120E09C
:1021D00030E048E453E40E941702DC01CB018CAFED
:1021E0009DAFAEAFBFAF6CAD7DAD8EAD9FAD20E00E
:1021F00030E040E85FE30E941D0488232CF481E076
:1022000090E09BAF8AAF42C06CAD7DAD8EAD9FAD0F
:1022100020E03FEF4FE757E40E94BD03181664F536
:10222000FE01E05CFF4F608171818281938120E03B
:1022300030E040E251E40E941702DC01CB01BC0116
:10224000CD010E944100DC01CB019BAF8AAF0FC0E2
:1022500084E190E099AF88AF88AD99AD0197F1F72F
:1022600099AF88AF8AAD9BAD01979BAF8AAF8AAD1E
:102270009BAD009769F72EC06CAD7DAD8EAD9FAD67
:102280000E944100DC01CB019BAF8AAF8AAD9BADC0
:102290009FAB8EAB8EA99FA90197F1F79FAB8EAB39
:1022A00019C08E010C5B1F4FFE01EB5BFF4F60817D
:1022B0007181828193810E944100DC01CB01F80190
:1022C0008083FE01EC5BFF4F80818DAB8DA98A95E9
:1022D000F1F78DABA5E3B0E0E5E3F0E080818F7727
:1022E0008C9380E090E0A0E8BFE389AB9AABABAB06
:1022F000BCAB69A97AA98BA99CA920E030E048E48D
:1023000053E40E941702DC01CB018DA79EA7AFA763
:10231000B8AB6DA57EA58FA598A920E030E040E878
:102320005FE30E941D0488232CF481E090E09CA7C9
:102330008BA73FC06DA57EA58FA598A920E03FEF94
:102340004FE757E40E94BD0318164CF569A97AA916
:102350008BA99CA920E030E040E251E40E941702E2
:10236000DC01CB01BC01CD010E944100DC01CB01AD
:102370009CA78BA70FC084E190E09AA789A789A5A5
:102380009AA50197F1F79AA789A78BA59CA5019714
:102390009CA78BA78BA59CA5009769F714C06DA57A
:1023A0007EA58FA598A90E944100DC01CB019CA7C6
:1023B0008BA78BA59CA598A78FA38FA198A5019704
:1023C000F1F798A78FA3A8E3B0E0E8E3F0E08081FD
:1023D000282F2F70FE01E35BFF4F8081882F90E054
:1023E00082959295907F9827807F9827822B8C9357
:1023F000A5E3B0E0E5E3F0E0808180688C9380E0C5
:1024000090E0A0E8BFE38BA39CA3ADA3BEA36BA108
:102410007CA18DA19EA129E838E848E85EE30E94EE
:102420001702DC01CB018F8F98A3A9A3BAA36F8DEC
:1024300078A189A19AA120E030E040E85FE30E9402
:102440001D0488231CF481E08E8F91C06F8D78A1CC
:1024500089A19AA120E030E04FE753E40E94BD0338
:1024600018160CF07BC06BA17CA18DA19EA120E071
:1024700030E04AE754E40E941103DC01CB018A8F6B
:102480009B8FAC8FBD8F6A8D7B8D8C8D9D8D20E059
:1024900030E048E453E40E941702DC01CB018E8B4C
:1024A0009F8BA88FB98F6E897F89888D998D20E049
:1024B00030E040E85FE30E941D0488232CF481E0B3
:1024C00090E09D8B8C8B3FC06E897F89888D998D24
:1024D00020E03FEF4FE757E40E94BD0318164CF58C
:1024E0006A8D7B8D8C8D9D8D20E030E040E251E443
:1024F0000E941702DC01CB01BC01CD010E9441000A
:10250000DC01CB019D8B8C8B0FC084E190E09B8B19
:102510008A8B8A899B890197F1F79B8B8A8B8C899F
:102520009D8901979D8B8C8B8C899D89009769F77C
:1025300024C06E897F89888D998D0E944100DC01BD
:10254000CB019D8B8C8B8C899D89998B888B8889FD
:1025500099890197F1F7998B888B0FC06F8D78A1BE
:1025600089A19AA10E944100DC01CB018E8F8E8D42
:102570008F878F858A95F1F78F87A5E3B0E0E5E334
:10258000F0E080818F778C9380E090E0A0E8BFE35B
:102590008B879C87AD87BE876B857C858D859E8567
:1025A00020E030E048E453E40E941702DC01CB0154
:1025B0008F839887A987BA876F81788589859A855F
:1025C00020E030E040E85FE30E941D0488232CF403
:1025D00081E090E09E838D833FC06F8178858985FF
:1025E0009A8520E03FEF4FE757E40E94BD0318169D
:1025F0004CF56B857C858D859E8520E030E040E242
:1026000051E40E941702DC01CB01BC01CD010E9404
:102610004100DC01CB019E838D830FC084E190E0FB
:102620009C838B838B819C810197F1F79C838B83A7
:102630008D819E8101979E838D838D819E810097E0
:1026400069F714C06F81788589859A850E94410059
:10265000DC01CB019E838D838D819E819A8389834A
:1026600089819A810197F1F79A838983C35BDF4F50
:102670000FB6F894DEBF0FBECDBFCF91DF911F9193
:102680000F910895DF93CF9300D0CDB7DEB79A8333
:1026900089830BC0E981FA81208189819A81019621
:1026A0009A838983822F0E945610E981FA81808162
:1026B000882381F70F900F90CF91DF910895DF93DA
:1026C000CF93CDB7DEB760970FB6F894DEBF0FBEDD
:1026D000CDBF8F87688B8F85813029F48889815899
:1026E0000E94140E07C08F85823021F4888981549E
:1026F0000E94140E80E090E0A0E8BFE38B879C87E7
:10270000AD87BE876B857C858D859E8520E030E01A
:1027100048E453E40E941702DC01CB018F839887C1
:10272000A987BA876F81788589859A8520E030E00E
:1027300040E85FE30E941D0488232CF481E090E0D0
:102740009E838D833FC06F81788589859A8520E03F
:102750003FEF4FE757E40E94BD0318164CF56B8519
:102760007C858D859E8520E030E040E251E40E942A
:102770001702DC01CB01BC01CD010E944100DC014C
:10278000CB019E838D830FC084E190E09C838B837B
:102790008B819C810197F1F79C838B838D819E8136
:1027A00001979E838D838D819E81009769F714C068
:1027B0006F81788589859A850E944100DC01CB0173
:1027C0009E838D838D819E819A83898389819A815D
:1027D0000197F1F79A83898360960FB6F894DEBF6C
:1027E0000FBECDBFCF91DF910895DF93CF93CDB7CB
:1027F000DEB768970FB6F894DEBF0FBECDBF81E09D
:102800000E94140E80E090E0AAEFB4E48D8B9E8BC2
:10281000AF8BB88F6D897E898F89988D29E838E8CC
:1028200048E85EE30E941702DC01CB01898B9A8B9A
:10283000AB8BBC8B69897A898B899C8920E030E0DD
:1028400040E85FE30E941D0488231CF481E0888B2C
:1028500091C069897A898B899C8920E030E04FE7B3
:1028600053E40E94BD0318160CF07BC06D897E896D
:102870008F89988D20E030E04AE754E40E941103EC
:10288000DC01CB018C879D87AE87BF876C857D85FA
:102890008E859F8520E030E048E453E40E941702D3
:1028A000DC01CB0188879987AA87BB8768857985F2
:1028B0008A859B8520E030E040E85FE30E941D04AC
:1028C00088232CF481E090E09F838E833FC068854D
:1028D00079858A859B8520E03FEF4FE757E40E948A
:1028E000BD0318164CF56C857D858E859F8520E08F
:1028F00030E040E251E40E941702DC01CB01BC0150
:10290000CD010E944100DC01CB019F838E830FC06B
:1029100084E190E09D838C838C819D810197F1F708
:102920009D838C838E819F8101979F838E838E816F
:102930009F81009769F724C0688579858A859B8582
:102940000E944100DC01CB019F838E838E819F8199
:102950009B838A838A819B810197F1F79B838A837A
:102960000FC069897A898B899C890E944100DC01AA
:10297000CB01888B8889898389818A95F1F789833E
:1029800068960FB6F894DEBF0FBECDBFCF91DF9132
:102990000895DF93CF93CDB7DEB766970FB6F8945F
:1029A000DEBF0FBECDBF0E944D070E94111A0E94CC
:1029B000DC150E940F071C8A1B8A1A8A198A188A3A
:1029C0001F8681E490E00E94561B80E690E00E9402
:1029D000721B80E090E0AAE7B4E48B879C87AD8708
:1029E000BE876B857C858D859E8520E030E048E440
:1029F00053E40E941702DC01CB018F839887A987DB
:102A0000BA876F81788589859A8520E030E040E833
:102A10005FE30E941D0488232CF481E090E09E83F4
:102A20008D833FC06F81788589859A8520E03FEF4F
:102A30004FE757E40E94BD0318164CF56B857C8563
:102A40008D859E8520E030E040E251E40E9417022F
:102A5000DC01CB01BC01CD010E944100DC01CB01B6
:102A60009E838D830FC084E190E09C838B838B8158
:102A70009C810197F1F79C838B838D819E810197C7
:102A80009E838D838D819E81009769F714C06F812D
:102A9000788589859A850E944100DC01CB019E835F
:102AA0008D838D819E819A83898389819A81019703
:102AB000F1F79A8389830E94661B8C8B8C89282F5F
:102AC00030E03E8B2D8B8D899E898130910531F0D0
:102AD0002D893E892230310591F063C00E948F1B01
:102AE00084E790E00E94721B81E090E061E070E07A
:102AF0000E945F1383E890E00E94421352C086E078
:102B000090E00E941E079B8B8A8B8A899B89CC014F
:102B1000A0E0B0E0BC01CD010E94A104DC01CB012A
:102B2000BC01CD0126EF38E24CE950E40E941702C7
:102B3000DC01CB01BC01CD010E944100DC01CB01D5
:102B4000998B888B888999892AE030E0B9010E94A5
:102B5000521ECB018F878F85882F90E00E94FF1532
:102B600080E990E00E94721B8F85882F90E04E963E
:102B70000E94721B81E090E061E070E00E945F13B0
:102B800084EA90E00E94421382E090E065E070E009
:102B90000E945F138F85882F90E04E960E9442130B
:102BA000AECF80E090E066960FB6F894DEBF0FBE21
:102BB000CDBFCF91DF910895DF93CF9300D0CDB7F4
:102BC000DEB7E7E3F0E08FE08083E4E3F0E08CE35E
:102BD00080831A82198209C0E8E3F0E0898180834A
:102BE00089819A8101969A83898389819A818A3021
:102BF000910594F30F900F90CF91DF910895DF939B
:102C0000CF93CDB7DEB7C054D0400FB6F894DEBF37
:102C10000FBECDBFFE01FF96918380831EAE1DAE19
:102C20001CAE1BAE1AAE19AEFE01FF9680819181DB
:102C300028EE33E0B9010E94521ECB018BAFFE019A
:102C4000FF968081918128EE33E0B9010E94521EE7
:102C50009AAF89AF89AD9AAD24E630E0B9010E9400
:102C6000521ECB018CAF89AD9AAD24E630E0B9019C
:102C70000E94521E9AAF89AF89AD9AAD2AE030E02A
:102C8000B9010E94521ECB018DAF89AD9AAD2AE0E9
:102C900030E0B9010E94521E8EAFFE01FF96808186
:102CA000918123E0893E920708F492C0A5E3B0E049
:102CB000E5E3F0E080818F7D8C93A5E3B0E0E5E370
:102CC000F0E0808180618C93A5E3B0E0E5E3F0E083
:102CD000808188608C93A5E3B0E0E5E3F0E080813B
:102CE00084608C93E8E3F0E08BAD808380E090E03B
:102CF000A0EAB0E48DAB9EABAFABB8AF6DA97EA937
:102D00008FA998AD20E030E048E453E40E94170218
:102D1000DC01CB0189AB9AABABABBCAB69A97AA99F
:102D20008BA99CA920E030E040E85FE30E941D04ED
:102D300088232CF481E090E098AB8FA73FC069A96D
:102D40007AA98BA99CA920E03FEF4FE757E40E94A6
:102D5000BD0318164CF56DA97EA98FA998AD20E08A
:102D600030E040E251E40E941702DC01CB01BC01DB
:102D7000CD010E944100DC01CB0198AB8FA70FC0B1
:102D800084E190E09EA78DA78DA59EA50197F1F700
:102D90009EA78DA78FA598A9019798AB8FA78FA500
:102DA00098A9009769F714C069A97AA98BA99CA969
:102DB0000E944100DC01CB0198AB8FA78FA598A999
:102DC0009CA78BA78BA59CA50197F1F79CA78BA728
:102DD000FE01FF96808191818536910508F492C0AD
:102DE000A5E3B0E0E5E3F0E0808180628C93A5E3A9
:102DF000B0E0E5E3F0E080818F7E8C93A5E3B0E066
:102E0000E5E3F0E0808188608C93A5E3B0E0E5E342
:102E1000F0E0808184608C93E8E3F0E08CAD808307
:102E200080E090E0A0EAB0E48FA398A7A9A7BAA792
:102E30006FA178A589A59AA520E030E048E453E485
:102E40000E941702DC01CB018BA39CA3ADA3BEA300
:102E50006BA17CA18DA19EA120E030E040E85FE362
:102E60000E941D0488232CF481E090E09AA389A39A
:102E70003FC06BA17CA18DA19EA120E03FEF4FE759
:102E800057E40E94BD0318164CF56FA178A589A5DB
:102E90009AA520E030E040E251E40E941702DC01F4
:102EA000CB01BC01CD010E944100DC01CB019AA302
:102EB00089A30FC084E190E098A38F8F8F8D98A194
:102EC0000197F1F798A38F8F89A19AA101979AA3EF
:102ED00089A389A19AA1009769F714C06BA17CA16D
:102EE0008DA19EA10E944100DC01CB019AA389A380
:102EF00089A19AA19E8F8D8F8D8D9E8D0197F1F75F
:102F00009E8F8D8FFE01FF96808191818B30910580
:102F100008F492C0A5E3B0E0E5E3F0E080818062D0
:102F20008C93A5E3B0E0E5E3F0E0808180618C93D1
:102F3000A5E3B0E0E5E3F0E08081877F8C93A5E333
:102F4000B0E0E5E3F0E0808184608C93E8E3F0E0BA
:102F50008DAD808380E090E0A0EAB0E4898F9A8F05
:102F6000AB8FBC8F698D7A8D8B8D9C8D20E030E08E
:102F700048E453E40E941702DC01CB018D8B9E8B49
:102F8000AF8BB88F6D897E898F89988D20E030E076
:102F900040E85FE30E941D0488232CF481E090E068
:102FA0009C8B8B8B3FC06D897E898F89988D20E0AB
:102FB0003FEF4FE757E40E94BD0318164CF5698DAB
:102FC0007A8D8B8D9C8D20E030E040E251E40E94B0
:102FD0001702DC01CB01BC01CD010E944100DC01E4
:102FE000CB019C8B8B8B0FC084E190E09A8B898BFB
:102FF00089899A890197F1F79A8B898B8B899C89AA
:1030000001979C8B8B8B8B899C89009769F714C0E7
:103010006D897E898F89988D0E944100DC01CB01EA
:103020009C8B8B8B8B899C89988B8F878F859889BC
:103030000197F1F7988B8F87A5E3B0E0E5E3F0E027
:10304000808180628C93A5E3B0E0E5E3F0E08081CD
:1030500080618C93A5E3B0E0E5E3F0E080818860D7
:103060008C93A5E3B0E0E5E3F0E080818B7F8C9367
:10307000E8E3F0E08EAD808380E090E0A0EAB0E489
:103080008B879C87AD87BE876B857C858D859E856C
:1030900020E030E048E453E40E941702DC01CB0159
:1030A0008F839887A987BA876F81788589859A8564
:1030B00020E030E040E85FE30E941D0488232CF408
:1030C00081E090E09E838D833FC06F817885898504
:1030D0009A8520E03FEF4FE757E40E94BD031816A2
:1030E0004CF56B857C858D859E8520E030E040E247
:1030F00051E40E941702DC01CB01BC01CD010E940A
:103100004100DC01CB019E838D830FC084E190E000
:103110009C838B838B819C810197F1F79C838B83AC
:103120008D819E8101979E838D838D819E810097E5
:1031300069F714C06F81788589859A850E9441005E
:10314000DC01CB019E838D838D819E819A8389834F
:1031500089819A810197F1F79A838983C05CDF4F57
:103160000FB6F894DEBF0FBECDBFCF91DF910895AB
:10317000DF93CF93CDB7DEB76D970FB6F894DEBF70
:103180000FBECDBF1D8EA5E3B0E0E5E3F0E080818A
:103190008F7D8C93A5E3B0E0E5E3F0E08081806172
:1031A0008C93A5E3B0E0E5E3F0E0808188608C9348
:1031B000A5E3B0E0E5E3F0E0808184608C93E8E390
:1031C000F0E0108280E090E0A0EAB0E4898F9A8F6E
:1031D000AB8FBC8F698D7A8D8B8D9C8D20E030E01C
:1031E00048E453E40E941702DC01CB018D8B9E8BD7
:1031F000AF8BB88F6D897E898F89988D20E030E004
:1032000040E85FE30E941D0488232CF481E090E0F5
:103210009C8B8B8B3FC06D897E898F89988D20E038
:103220003FEF4FE757E40E94BD0318164CF5698D38
:103230007A8D8B8D9C8D20E030E040E251E40E943D
:103240001702DC01CB01BC01CD010E944100DC0171
:10325000CB019C8B8B8B0FC084E190E09A8B898B88
:1032600089899A890197F1F79A8B898B8B899C8937
:1032700001979C8B8B8B8B899C89009769F714C075
:103280006D897E898F89988D0E944100DC01CB0178
:103290009C8B8B8B8B899C89988B8F878F8598894A
:1032A0000197F1F7988B8F87A5E3B0E0E5E3F0E0B5
:1032B000808180628C93A5E3B0E0E5E3F0E080815B
:1032C0008F7E8C93A5E3B0E0E5E3F0E08081886039
:1032D0008C93A5E3B0E0E5E3F0E0808184608C931B
:1032E000E8E3F0E08D8D80838D8D8F5F8D8F80E0A2
:1032F00090E0A0EAB0E48B879C87AD87BE876B85A2
:103300007C858D859E8520E030E048E453E40E9472
:103310001702DC01CB018F839887A987BA876F8159
:10332000788589859A8520E030E040E85FE30E9457
:103330001D0488232CF481E090E09E838D833FC0A0
:103340006F81788589859A8520E03FEF4FE757E4C4
:103350000E94BD0318164CF56B857C858D859E8576
:1033600020E030E040E251E40E941702DC01CB0192
:10337000BC01CD010E944100DC01CB019E838D8305
:103380000FC084E190E09C838B838B819C810197AB
:10339000F1F79C838B838D819E8101979E838D8322
:1033A0008D819E81009769F714C06F81788589852A
:1033B0009A850E944100DC01CB019E838D838D8123
:1033C0009E819A83898389819A810197F1F79A83F3
:1033D00089838D8D8A3008F483CFA5E3B0E0E5E3DF
:1033E000F0E0808180628C93A5E3B0E0E5E3F0E05B
:1033F000808180618C93A5E3B0E0E5E3F0E080811B
:10340000877F8C93A5E3B0E0E5E3F0E08081846002
:103410008C93E8E3F0E08D8D80838D8D8F5F8D8FB1
:103420005FCFDF93CF9300D0CDB7DEB71A8219827A
:10343000EAE2F0E088E18083E0E4F0E086E880837F
:1034400083E390E09A838983E9E2F0E089818083D5
:10345000E0E4F0E010820F900F90CF91DF9108959B
:10346000DF93CF93CDB7DEB72E970FB6F894DEBFBC
:103470000FBECDBFEBE2F0E08081882F90E080723C
:1034800090700097B9F380E090E8ABE3B5E48B87E8
:103490009C87AD87BE876B857C858D859E8520E06A
:1034A00030E048E453E40E941702DC01CB018F8333
:1034B0009887A987BA876F81788589859A8520E062
:1034C00030E040E85FE30E941D0488232CF481E093
:1034D00090E09E838D833FC06F81788589859A8532
:1034E00020E03FEF4FE757E40E94BD0318164CF56C
:1034F0006B857C858D859E8520E030E040E251E43F
:103500000E941702DC01CB01BC01CD010E944100E9
:10351000DC01CB019E838D830FC084E190E09C830E
:103520008B838B819C810197F1F79C838B838D81A9
:103530009E8101979E838D838D819E81009769F77F
:1035400014C06F81788589859A850E944100DC01CD
:10355000CB019E838D838D819E819A83898389810E
:103560009A810197F1F79A8389830E94F5132E9629
:103570000FB6F894DEBF0FBECDBFCF91DF91089597
:10358000DF93CF93CDB7DEB72E970FB6F894DEBF9B
:103590000FBECDBFEBE2F0E080818823DCF781E055
:1035A00090E061E070E00E945F138EEA90E00E947C
:1035B000421380E090E8ABE3B5E48B879C87AD874E
:1035C000BE876B857C858D859E8520E030E048E454
:1035D00053E40E941702DC01CB018F839887A987EF
:1035E000BA876F81788589859A8520E030E040E848
:1035F0005FE30E941D0488232CF481E090E09E8309
:103600008D833FC06F81788589859A8520E03FEF63
:103610004FE757E40E94BD0318164CF56B857C8577
:103620008D859E8520E030E040E251E40E94170243
:10363000DC01CB01BC01CD010E944100DC01CB01CA
:103640009E838D830FC084E190E09C838B838B816C
:103650009C810197F1F79C838B838D819E810197DB
:103660009E838D838D819E81009769F714C06F8141
:10367000788589859A850E944100DC01CB019E8373
:103680008D838D819E819A83898389819A81019717
:10369000F1F79A8389830E94F5132E960FB6F8945A
:1036A000DEBF0FBECDBFCF91DF910895DF93CF93E3
:1036B0000F92CDB7DEB789830E94301AECE2F0E0BA
:1036C000898180830F90CF91DF910895DF93CF930D
:1036D000CDB7DEB70E94C01AECE2F0E08081CF9156
:1036E000DF910895DF93CF9300D0CDB7DEB79A83F3
:1036F00089830BC0E981FA81208189819A810196B1
:103700009A838983822F0E94561BE981FA818081E6
:10371000882381F70F900F90CF91DF910895DF9369
:10372000CF93CDB7DEB7C054D0400FB6F894DEBF0C
:103730000FBECDBFFE01FF96118210821EAE1DAEE0
:103740001CAE1BAE1AAE19AE9AC2FE01FF96808166
:10375000918128EE33E0B9010E94521ECB018BAF5C
:10376000FE01FF968081918128EE33E0B9010E942D
:10377000521E9AAF89AF89AD9AAD24E630E0B90107
:103780000E94521ECB018CAF89AD9AAD24E630E089
:10379000B9010E94521E9AAF89AF89AD9AAD2AE055
:1037A00030E0B9010E94521ECB018DAF89AD9AADB8
:1037B0002AE030E0B9010E94521E8EAFFE01FF9652
:1037C0008081918123E0893E920708F492C0A5E3AD
:1037D000B0E0E5E3F0E080818F7D8C93A5E3B0E07D
:1037E000E5E3F0E0808180618C93A5E3B0E0E5E360
:1037F000F0E0808188608C93A5E3B0E0E5E3F0E041
:10380000808184608C93E8E3F0E08BAD808380E07E
:1038100090E0A0EAB0E48DAB9EABAFABB8AF6DA9C2
:103820007EA98FA998AD20E030E048E453E40E94DF
:103830001702DC01CB0189AB9AABABABBCAB69A97E
:103840007AA98BA99CA920E030E040E85FE30E94C0
:103850001D0488232CF481E090E098AB8FA73FC033
:1038600069A97AA98BA99CA920E03FEF4FE757E40B
:103870000E94BD0318164CF56DA97EA98FA998ADBD
:1038800020E030E040E251E40E941702DC01CB016D
:10389000BC01CD010E944100DC01CB0198AB8FA798
:1038A0000FC084E190E09EA78DA78DA59EA50197EE
:1038B000F1F79EA78DA78FA598A9019798AB8FA721
:1038C0008FA598A9009769F714C069A97AA98BA94F
:1038D0009CA90E944100DC01CB0198AB8FA78FA56A
:1038E00098A99CA78BA78BA59CA50197F1F79CA7EE
:1038F0008BA7FE01FF96808191818536910508F4A2
:1039000092C0A5E3B0E0E5E3F0E0808180628C93B3
:10391000A5E3B0E0E5E3F0E080818F7E8C93A5E342
:10392000B0E0E5E3F0E0808188608C93A5E3B0E04F
:10393000E5E3F0E0808184608C93E8E3F0E08CAD17
:10394000808380E090E0A0EAB0E48FA398A7A9A7C5
:10395000BAA76FA178A589A59AA520E030E048E430
:1039600053E40E941702DC01CB018BA39CA3ADA3FF
:10397000BEA36BA17CA18DA19EA120E030E040E818
:103980005FE30E941D0488232CF481E090E09AA359
:1039900089A33FC06BA17CA18DA19EA120E03FEF38
:1039A0004FE757E40E94BD0318164CF56FA178A5A8
:1039B00089A59AA520E030E040E251E40E94170278
:1039C000DC01CB01BC01CD010E944100DC01CB0137
:1039D0009AA389A30FC084E190E098A38F8F8F8D65
:1039E00098A10197F1F798A38F8F89A19AA10197C8
:1039F0009AA389A389A19AA1009769F714C06BA122
:103A00007CA18DA19EA10E944100DC01CB019AA363
:103A100089A389A19AA19E8F8D8F8D8D9E8D0197EF
:103A2000F1F79E8F8D8FFE01FF96808191818B3003
:103A3000910508F492C0A5E3B0E0E5E3F0E08081F1
:103A400080628C93A5E3B0E0E5E3F0E080818061E3
:103A50008C93A5E3B0E0E5E3F0E08081877F8C9371
:103A6000A5E3B0E0E5E3F0E0808184608C93E8E3D7
:103A7000F0E08DAD808380E090E0A0EAB0E4898F33
:103A80009A8FAB8FBC8F698D7A8D8B8D9C8D20E04A
:103A900030E048E453E40E941702DC01CB018D8B37
:103AA0009E8BAF8BB88F6D897E898F89988D20E032
:103AB00030E040E85FE30E941D0488232CF481E09D
:103AC00090E09C8B8B8B3FC06D897E898F89988D10
:103AD00020E03FEF4FE757E40E94BD0318164CF576
:103AE000698D7A8D8B8D9C8D20E030E040E251E431
:103AF0000E941702DC01CB01BC01CD010E944100F4
:103B0000DC01CB019C8B8B8B0FC084E190E09A8B06
:103B1000898B89899A890197F1F79A8B898B8B898F
:103B20009C8901979C8B8B8B8B899C89009769F76B
:103B300014C06D897E898F89988D0E944100DC01B7
:103B4000CB019C8B8B8B8B899C89988B8F878F85E6
:103B500098890197F1F7988B8F87A5E3B0E0E5E3AB
:103B6000F0E0808180628C93A5E3B0E0E5E3F0E0D3
:103B7000808180618C93A5E3B0E0E5E3F0E0808193
:103B800088608C93A5E3B0E0E5E3F0E080818B7F73
:103B90008C93E8E3F0E08EAD808380E090E0A0EAD3
:103BA000B0E48B879C87AD87BE876B857C858D85D0
:103BB0009E8520E030E048E453E40E941702DC01D7
:103BC000CB018F839887A987BA876F81788589858C
:103BD0009A8520E030E040E85FE30E941D048823DE
:103BE0002CF481E090E09E838D833FC06F817885C7
:103BF00089859A8520E03FEF4FE757E40E94BD0397
:103C000018164CF56B857C858D859E8520E030E00F
:103C100040E251E40E941702DC01CB01BC01CD015E
:103C20000E944100DC01CB019E838D830FC084E1A3
:103C300090E09C838B838B819C810197F1F79C831F
:103C40008B838D819E8101979E838D838D819E8143
:103C5000009769F714C06F81788589859A850E94DD
:103C60004100DC01CB019E838D838D819E819A83EF
:103C7000898389819A810197F1F79A838983FE016B
:103C8000FF968081918123E0893E920708F45DCD03
:103C9000C05CDF4F0FB6F894DEBF0FBECDBFCF9133
:103CA000DF910895AA1BBB1B51E107C0AA1FBB1FD0
:103CB000A617B70710F0A61BB70B881F991F5A95B8
:103CC000A9F780959095BC01CD0108952F923F9260
:103CD0004F925F926F927F928F929F92AF92BF921C
:103CE000CF92DF92EF92FF920F931F93CF93DF93C8
:103CF000CDB7DEB7CA1BDB0B0FB6F894DEBF0FBE25
:103D0000CDBF09942A88398848885F846E847D8471
:103D10008C849B84AA84B984C884DF80EE80FD8073
:103D20000C811B81AA81B981CE0FD11D0FB6F894E9
:0E3D3000DEBF0FBECDBFED010895F894FFCFAA
:103D3E00414C49204D4F48414D454420454C534937
:103D4E004144200020636F756E74696E67206E6F3C
:103D5E00772000636F756E74696E67206E6F7700E3
:103D6E00202074656D70657261747572652069735B
:103D7E00203A200074656D70206973203A0020523D
:103D8E006563656976696E6720636F6D706C6574C7
:103D9E00652021200000000000000000000001024C
:103DAE0002030303030404040404040404050505C8
:103DBE0005050505050505050505050505060606A2
:103DCE000606060606060606060606060606060685
:103DDE000606060606060606060606060607070772
:103DEE000707070707070707070707070707070755
:103DFE000707070707070707070707070707070745
:103E0E000707070707070707070707070707070734
:103E1E000707070707070707070707070708080821
:103E2E000808080808080808080808080808080804
:103E3E0008080808080808080808080808080808F4
:103E4E0008080808080808080808080808080808E4
:103E5E0008080808080808080808080808080808D4
:103E6E0008080808080808080808080808080808C4
:103E7E0008080808080808080808080808080808B4
:103E8E0008080808080808080808080808080808A4
:0E3E9E000808080808080808080808080800AE
:00000001FF
